:020000040800F2
:100000000050002071280008ED230008EF230008AD
:10001000F1230008F3230008F52300080000000086
:10002000000000000000000000000000F7230008AE
:10003000F923000800000000FB230008FD2300084E
:10004000B9280008B9280008B9280008B92800080C
:10005000B9280008B9280008B9280008B9280008FC
:10006000052400080F240008B928000819240008F6
:10007000B9280008B9280008B9280008B9280008DC
:10008000B9280008B9280008B9280008B9280008CC
:10009000B9280008B9280008B9280008B9280008BC
:1000A000B9280008B9280008B9280008B9280008AC
:1000B00029240008B9280008B9280008B928000830
:1000C000B9280008B9280008B9280008B92800088C
:1000D000B9280008B9280008B9280008B92800087C
:1000E00039240008B9280008B928000800000000D9
:1000F0000000000000000000000000000000000000
:0C01000000000000000000005FF808F1A3
:100110004FF0FF0C1CEAD0521EBF1CEAD15392EAEA
:100120000C0F93EA0C0F6FD01A4480EA010C4002C6
:1001300018BF5FEA41211ED04FF0006343EA501020
:1001400043EA5111A0FB01310CF00040B1F5000F62
:100150003EBF490041EAD3715B0040EA010062F111
:100160007F02FD2A1DD8B3F1004F40EBC25008BFFB
:1001700020F00100704790F0000F0CF0004C08BF19
:1001800049024CEA502040EA51207F3AC2BFD2F1E6
:10019000FF0340EAC250704740F400004FF00003F4
:1001A000013A5DDC12F1190FDCBF00F0004070472E
:1001B000C2F10002410021FA02F1C2F1200200FA6C
:1001C00002FC5FEA310040F1000053EA4C0308BF33
:1001D00020EADC70704792F0000F00F0004C02BF84
:1001E000400010F4000F013AF9D040EA0C0093F0FF
:1001F000000F01F0004C02BF490011F4000F013B59
:10020000F9D041EA0C018FE70CEAD15392EA0C0FC6
:1002100018BF93EA0C0F0AD030F0004C18BF31F031
:10022000004CD8D180EA010000F00040704790F007
:10023000000F17BF90F0004F084691F0000F91F0AB
:10024000004F14D092EA0C0F01D142020FD193EA71
:100250000C0F03D14B0218BF084608D180EA0100F9
:1002600000F0004040F0FE4040F40000704740F0D5
:10027000FE4040F44000704781F0004102E000BFC2
:1002800083F0004330B54FEA41044FEA430594EA56
:10029000050F08BF90EA020F1FBF54EA000C55EA91
:1002A000020C7FEA645C7FEA655C00F0E2804FEA62
:1002B0005454D4EB5555B8BF6D420CDD2C4480EA44
:1002C000020281EA030382EA000083EA010180EA74
:1002D000020281EA0303362D88BF30BD11F0004FC2
:1002E0004FEA01314FF4801C4CEA113102D04042F8
:1002F00061EB410113F0004F4FEA03334CEA133333
:1003000002D0524263EB430394EA050F00F0A7804A
:10031000A4F10104D5F1200E0DDB02FA0EFC22FA45
:1003200005F2801841F1000103FA0EF2801843FA39
:1003300005F359410EE0A5F120050EF1200E012A2A
:1003400003FA0EFC28BF4CF0020C43FA05F3C01868
:1003500051EBE37101F0004507D54FF0000EDCF1E1
:10036000000C7EEB00006EEB0101B1F5801F1BD38A
:10037000B1F5001F0CD349085FEA30004FEA3C0C8E
:1003800004F101044FEA445212F5800F80F09A8084
:10039000BCF1004F08BF5FEA500C50F1000041EB88
:1003A000045141EA050130BD5FEA4C0C404141EB8C
:1003B0000101013C28BFB1F5801FE9D291F0000F87
:1003C00004BF01460020B1FA81F308BF2033A3F136
:1003D0000B03B3F120020CDA0C3208DD02F1140C2D
:1003E000C2F10C0201FA0CF021FA02F10CE002F168
:1003F0001402D8BFC2F1200C01FA02F120FA0CFC61
:10040000DCBF41EA0C019040E41AA2BF01EB0451A9
:10041000294330BD6FEA04041F3C1CDA0C340EDCA7
:1004200004F11404C4F1200220FA04F001FA02F3EA
:1004300040EA030021FA04F345EA030130BDC4F1A8
:100440000C04C4F1200220FA02F001FA04F340EA9D
:100450000300294630BD21FA04F0294630BD94F04E
:10046000000F83F4801306BF81F480110134013D35
:100470004EE77FEA645C18BF7FEA655C29D094EAA6
:10048000050F08BF90EA020F05D054EA000C04BF24
:100490001946104630BD91EA030F1EBF002100200F
:1004A00030BD5FEA545C05D14000494128BF41F0AE
:1004B000004130BD14F580043CBF01F5801130BD12
:1004C00001F0004545F0FE4141F470014FF000009D
:1004D00030BD7FEA645C1ABF194610467FEA655C4E
:1004E0001CBF0B46024650EA013406BF52EA0335F0
:1004F00091EA030F41F4002130BD00BF90F0000FDE
:1005000004BF0021704730B54FF4806404F1320419
:100510004FF000054FF0000150E700BF90F0000FD2
:1005200004BF0021704730B54FF4806404F13204F9
:1005300010F0004548BF40424FF000013EE700BFC9
:1005400042004FEAE2014FEA31014FEA02701FBF59
:1005500012F07F4393F07F4F81F06051704732F08B
:100560007F4208BF704793F07F4F04BF41F40021E2
:10057000704730B54FF4607401F0004521F0004140
:100580001CE700BF50EA010208BF704730B54FF0CA
:1005900000050AE050EA010208BF704730B511F0CB
:1005A000004502D5404261EB41014FF4806404F103
:1005B00032045FEA915C3FF4D8AE4FF003025FEA89
:1005C000DC0C18BF03325FEADC0C18BF033202EB0D
:1005D000DC02C2F1200300FA03FC20FA02F001FA67
:1005E00003FE40EA0E0021FA02F11444BDE600BF0A
:1005F0004FEA410212F5001215D211D56FF478734B
:10060000B3EB625212D94FEAC12343F0004343EAED
:10061000505311F0004F23FA02F018BF40427047C8
:100620004FF00000704750EA013005D111F0004052
:1006300008BF6FF0004070474FF00000704700BFE8
:1006400080F0004002E000BF81F0004142001FBF87
:100650005FEA410392EA030F7FEA226C7FEA236C90
:100660006AD04FEA1262D2EB1363C1BFD218414085
:1006700048404140B8BF5B42192B88BF704710F01B
:10068000004F40F4000020F07F4018BF404211F0BE
:10069000004F41F4000121F07F4118BF494292EA26
:1006A000030F3FD0A2F1010241FA03FC10EB0C0052
:1006B000C3F1200301FA03F100F0004302D54942DF
:1006C00060EB4000B0F5000F13D3B0F1807F06D38C
:1006D00040084FEA310102F10102FE2A51D2B1F184
:1006E000004F40EBC25008BF20F0010040EA030079
:1006F0007047490040EB0000013A28BFB0F5000FF9
:10070000EDD2B0FA80FCACF1080CB2EB0C0200FAAE
:100710000CF0AABF00EBC25052421843BCBFD040FD
:100720001843704792F0000F81F4000106BF80F477
:1007300000000132013BB5E74FEA41037FEA226C3A
:1007400018BF7FEA236C21D092EA030F04D092F005
:10075000000F08BF0846704790EA010F1CBF002039
:10076000704712F07F4F04D1400028BF40F0004096
:10077000704712F100723CBF00F50000704700F0B6
:10078000004343F0FE4040F4000070477FEA2262DD
:1007900016BF08467FEA23630146420206BF5FEAAE
:1007A000412390EA010F40F4800070474FF00003AE
:1007B00004E000BF10F0004348BF40425FEA000C75
:1007C00008BF704743F0964301464FF000001CE01D
:1007D00050EA010208BF70474FF000030AE000BF73
:1007E00050EA010208BF704711F0004302D54042B1
:1007F00061EB41015FEA010C02BF84460146002023
:1008000043F0B64308BFA3F18053A3F50003BCFA3D
:100810008CF2083AA3EBC25310DB01FA02FC6344EA
:1008200000FA02FCC2F12002BCF1004F20FA02F2F1
:1008300043EB020008BF20F00100704702F12002E4
:1008400001FA02FCC2F1200250EA4C0021FA02F245
:1008500043EB020008BF20EADC7070474FF0FF3C1A
:1008600006E000BF4FF0010C02E000BF4FF0010CAA
:100870004DF804CD4FEA40024FEA41037FEA226C73
:1008800018BF7FEA236C11D001B052EA530C18BF95
:1008900090EA010F58BFB2EB030088BFC81738BFFA
:1008A0006FEAE17018BF40F0010070477FEA226CE8
:1008B00002D15FEA402C05D17FEA236CE4D15FEAE4
:1008C000412CE1D05DF8040B704700BF8446084618
:1008D0006146FFE70FB5FFF7C9FF002848BF10F1D9
:1008E000000F0FBD4DF808EDFFF7F4FF0CBF01201E
:1008F00000205DF808FB00BF4DF808EDFFF7EAFFA8
:1009000034BF012000205DF808FB00BF4DF808ED62
:10091000FFF7E0FF94BF012000205DF808FB00BF57
:100920004DF808EDFFF7D2FF94BF012000205DF8DD
:1009300008FB00BF4DF808EDFFF7C8FF34BF0120EA
:1009400000205DF808FB00BF4FEA4002B2F1FE4F05
:100950000FD34FF09E03B3EB12620DD94FEA002381
:1009600043F0004310F0004F23FA02F018BF40425A
:1009700070474FF00000704712F1610F01D1420241
:1009800005D110F0004008BF6FF0004070474FF0F5
:1009900000007047844641EA000313F0030349D185
:1009A000403A23D30B6803604B6843608B688360D5
:1009B000CB68C3600B6903614B6943618B698361D9
:1009C000CB69C3610B6A03624B6A43628B6A8362C1
:1009D000CB6AC3620B6B03634B6B43638B6B8363A9
:1009E000CB6BC36340304031403ADBD230320BD363
:1009F0000B6803604B6843608B688360CB68C3609F
:100A000010301031103AF3D20C3205D351F8043BB8
:100A100040F8043B043AF9D2043208D0D2071CBF94
:100A200011F8013B00F8013B01D30B8803806046BD
:100A3000704700BF082A13D38B07B1D010F003030F
:100A4000AED0C3F10403D21ADB071CBF11F8013B7F
:100A500000F8013BA4D331F8023B20F8023B9FE7AA
:100A6000043AD9D3013A11F8013B00F8013BF9D21D
:100A70000B7803704B7843708B78837060467047B7
:100A800070B54FF0FF0C4CF4E06C1CEA11541DBF24
:100A90001CEA135594EA0C0F95EA0C0F00F0DEF8EF
:100AA0002C4481EA030621EA4C5123EA4C5350EAD4
:100AB000013518BF52EA033541F4801143F4801325
:100AC00038D0A0FB02CE4FF00005E1FB02E506F0B6
:100AD0000042E0FB03E54FF00006E1FB03569CF00B
:100AE000000F18BF4EF0010EA4F1FF04B6F5007F11
:100AF00064F5407404D25FEA4E0E6D4146EB060683
:100B000042EAC62141EA55514FEAC52040EA5E500B
:100B10004FEACE2EB4F1FD0C88BFBCF5E06F1ED8B5
:100B2000BEF1004F08BF5FEA500E50F1000041EBEC
:100B3000045170BD06F0004646EA010140EA020099
:100B400081EA0301B4EB5C04C2BFD4EB0C0541EABB
:100B5000045170BD41F480114FF0000E013C00F3D0
:100B6000AB8014F1360FDEBF002001F0004170BDF4
:100B7000C4F10004203C35DA0C341BDC04F114040D
:100B8000C4F1200500FA05F320FA04F001FA05F299
:100B900040EA020001F0004221F0004110EBD37066
:100BA00021FA04F642EB06015EEA430E08BF20EA92
:100BB000D37070BDC4F10C04C4F1200500FA04F335
:100BC00020FA05F001FA04F240EA020001F00041C7
:100BD00010EBD37041F100015EEA430E08BF20EA3A
:100BE000D37070BDC4F1200500FA05F24EEA020E82
:100BF00020FA04F301FA05F243EA020321FA04F0B1
:100C000001F0004121FA04F220EA020000EBD37067
:100C10005EEA430E08BF20EAD37070BD94F0000F67
:100C20000FD101F00046400041EB010111F4801F9B
:100C300008BF013CF7D041EA060195F0000F18BF4C
:100C4000704703F00046520043EB030313F4801F88
:100C500008BF013DF7D043EA0603704794EA0C0F42
:100C60000CEA135518BF95EA0C0F0CD050EA410658
:100C700018BF52EA4306D1D181EA030101F00041D5
:100C80004FF0000070BD50EA410606BF10461946FD
:100C900052EA430619D094EA0C0F02D150EA013609
:100CA00013D195EA0C0F05D152EA03361CBF10464A
:100CB00019460AD181EA030101F0004141F0FE41E9
:100CC00041F470014FF0000070BD41F0FE4141F46D
:100CD000780170BD70B54FF0FF0C4CF4E06C1CEA6D
:100CE00011541DBF1CEA135594EA0C0F95EA0C0F22
:100CF00000F0A7F8A4EB050481EA030E52EA0335DD
:100D00004FEA013100F088804FEA03334FF08055FD
:100D100045EA131343EA12634FEA022245EA11152A
:100D200045EA10654FEA00260EF000419D4208BFDB
:100D3000964244F1FD0404F5407402D25B084FEA88
:100D40003202B61A65EB03055B084FEA32024FF434
:100D500080104FF4002CB6EB020E75EB030E22BF91
:100D6000B61A754640EA0C005B084FEA3202B6EB51
:100D7000020E75EB030E22BFB61A754640EA5C0000
:100D80005B084FEA3202B6EB020E75EB030E22BF90
:100D9000B61A754640EA9C005B084FEA3202B6EB91
:100DA000020E75EB030E22BFB61A754640EADC0050
:100DB00055EA060E18D04FEA051545EA16754FEAB2
:100DC00006164FEAC30343EA52734FEAC2025FEAD0
:100DD0001C1CC0D111F4801F0BD141EA00014FF05F
:100DE00000004FF0004CB6E711F4801F04BF014330
:100DF0000020B4F1FD0C88BFBCF5E06F3FF6AFAE4C
:100E0000B5EB030C04BFB6EB020C5FEA500C50F1DB
:100E1000000041EB045170BD0EF0004E4EEA11315E
:100E200014EB5C04C2BFD4EB0C0541EA045170BD65
:100E300041F480114FF0000E013C90E645EA060EA9
:100E40008DE60CEA135594EA0C0F08BF95EA0C0FD7
:100E50003FF43BAF94EA0C0F0AD150EA01347FF41F
:100E600034AF95EA0C0F7FF425AF104619462CE7F6
:100E700095EA0C0F06D152EA03353FF4FDAE104659
:100E8000194622E750EA410618BF52EA43067FF4AA
:100E9000C5AE50EA41047FF40DAF52EA43057FF43A
:100EA000EBAE12E74FF0FF3C06E000BF4FF0010C45
:100EB00002E000BF4FF0010C4DF804CD4FEA410CA9
:100EC0007FEA6C5C4FEA430C18BF7FEA6C5C1BD076
:100ED00001B050EA410C0CBF52EA430C91EA030FF7
:100EE00002BF90EA020F0020704710F1000F91EA54
:100EF000030F58BF994208BF90422CBFD8176FEA22
:100F0000E37040F0010070474FEA410C7FEA6C5CEF
:100F100002D150EA013C07D14FEA430C7FEA6C5CF6
:100F2000D6D152EA033CD3D05DF8040B704700BF22
:100F30008446104662468C461946634600E000BF70
:100F400001B5FFF7B7FF002848BF10F1000F01BD42
:100F50004DF808EDFFF7F4FF0CBF012000205DF80D
:100F600008FB00BF4DF808EDFFF7EAFF34BF012092
:100F700000205DF808FB00BF4DF808EDFFF7E0FF2B
:100F800094BF012000205DF808FB00BF4DF808ED7C
:100F9000FFF7CEFF94BF012000205DF808FB00BFE3
:100FA0004DF808EDFFF7C4FF34BF012000205DF8C5
:100FB00008FB00BF4FEA410C7FEA6C5C02D150EAAB
:100FC000013C0AD14FEA430C7FEA6C5C02D152EA41
:100FD000033C02D14FF0000070474FF00100704712
:100FE00053B94AB9002908BF00281CBF4FF0FF3190
:100FF0004FF0FF3000F076B9ADF1080C6DE904CE8A
:1010000000F006F8DDF804E0DDE9022304B07047E3
:101010002DE9F047089E0D4604468846002B4DD129
:101020008A42944668D9B2FA82F252B101FA02F3C6
:10103000C2F1200120FA01F10CFA02FC41EA030896
:1010400094404FEA1C41B8FBF1F71FFA8CFE01FBFC
:10105000178807FB0EF0230C43EA084398420AD98D
:101060001CEB030307F1FF3580F01E81984240F22C
:101070001B81023F63441B1AB3FBF1F001FB1033E9
:1010800000FB0EFEA4B244EA0344A6450AD91CEBB9
:10109000040400F1FF3380F00981A64540F2068187
:1010A000644402380021A4EB0E0440EA07401EB15C
:1010B0000023D440C6E90043BDE8F0878B4208D93D
:1010C000002E00F0EE800021C6E900050846BDE8CC
:1010D000F087B3FA83F100294AD1AB4202D38242AE
:1010E00000F2FC80841A65EB030301209846002E71
:1010F000E2D0C6E90048DFE702B9FFDEB2FA82F2C9
:10110000002A40F09180A1EB0C0001214FEA1C471E
:101110001FFA8CFEB0FBF7F307FB1300250C45EA22
:1011200000450EFB03F0A84208D91CEB050503F1AE
:10113000FF3802D2A84200F2CE8043462D1AB5FBFA
:10114000F7F007FB10550EFB00FEA4B244EA05447D
:10115000A64508D91CEB040400F1FF3502D2A645D0
:1011600000F2B6802846A4EB0E0440EA03409EE756
:10117000C1F120078B4022FA07FC4CEA030C25FA48
:1011800007FA4FEA1C49BAFBF9F820FA07F309FB02
:1011900018AA8D401FFA8CFE1D4300FA01F308FBCC
:1011A0000EF02C0C44EA0A44A04202FA01F20BD9D8
:1011B0001CEB040408F1FF3A80F08880A04240F262
:1011C0008580A8F102086444241AB4FBF9F009FBF5
:1011D000104400FB0EFEADB245EA0444A64508D912
:1011E0001CEB040400F1FF356CD2A6456AD9023825
:1011F000644440EA0840A0FB0295A4EB0E04AC4214
:10120000C846AE4656D353D0002E69D0B3EB080281
:1012100064EB0E0422FA01F304FA07F71F43CC40F3
:10122000C6E90074002147E70CFA02FCC2F1200174
:1012300025FA01F34FEA1C4720FA01F195400D43CE
:10124000B3FBF7F107FB11331FFA8CFE280C40EAC1
:10125000034001FB0EF3834204FA02F408D91CEBAD
:10126000000001F1FF382FD283422DD902396044AA
:10127000C01AB0FBF7F307FB1300ADB245EA004517
:1012800003FB0EF0A84208D91CEB050503F1FF385B
:1012900016D2A84214D9023B6544281A43EA0141F8
:1012A00038E73146304607E72F46E4E61846F9E6C8
:1012B0004B45A9D2B9EB020865EB0C0E0138A3E748
:1012C0004346EAE7284694E74146D1E7D0467BE724
:1012D0006444023847E7023B65442FE7084606E7C7
:1012E0003146E9E6704700BF034B1B68586A00228D
:1012F0005A6200B2704700BF9C0A002038B5041E35
:101300000FDD134D01222021284602F0D0F80022E3
:101310001021284602F0CBF80E4B1B6819341C64D0
:1013200038BD0B4D00222021284602F0C0F80122D2
:101330001021284602F0BBF824B9064B1B68002296
:101340001A64EDE7034B1B68C4F119041C64E7E75A
:10135000000C01402C0B002008B502461021024869
:1013600002F0A5F808BD00BF0008014008B502461C
:101370000121024802F09BF808BD00BF000C0140AB
:1013800008B502468021024802F091F808BD00BF6E
:101390000008014008B502462021024802F087F803
:1013A00008BD00BF0008014008B50821014802F04F
:1013B00077F808BD0008014008B54021014802F057
:1013C0006FF808BD00080140F8B50746002635460D
:1013D00004E00020FFF7DEFF0135EDB2072D10D845
:1013E00080242C4164B204EA0700FFF7C9FF012002
:1013F000FFF7D0FFFFF7E0FF0128EAD12643F6B25E
:10140000E7E73046F8BD38B505460C460020FFF743
:10141000A3FF2846FFF7D8FF2046FFF7D5FF01209E
:10142000FFF79AFF38BD10B504460020FFF794FF80
:101430002046FFF7C9FFFF20FFF7C6FF0446012043
:10144000FFF78AFF204610BD70B504460E461546CC
:101450000020FFF781FF2046FFF7B6FF002404E0DD
:10146000305DFFF7B1FF0134E4B2AC42F8D30120A4
:10147000FFF772FF70BD70B504460E46154600209A
:10148000FFF76AFF2046FFF79FFF002405E0FF20DB
:10149000FFF79AFF30550134E4B2AC42F7D3012094
:1014A000FFF75AFF70BD000008B50020FFF75EFF90
:1014B000052214493020FFF7C7FF052212492A20D0
:1014C000FFF7C2FF0F212020FFF79DFF0121212000
:1014D000FFF799FF00212520FFF795FF022131201A
:1014E000FFF791FF01212220FFF78DFF1A21242011
:1014F000FFF789FFFF21E220FFF785FF0120FFF7BB
:1015000035FF08BD080000200000002038B5054662
:101510000720FFF788FF10F0400F00D138BD0446C8
:10152000022229466120FFF7A6FFFF21E220FFF7F4
:101530006AFF21462720FFF766FF962001F008FA90
:10154000ECE7000010B5074C01224FF480712046F3
:1015500001F0ADFF01224FF40071204601F0A7FF1A
:1015600010BD00BF000C014010B50D4C01224FF41E
:101570000071204601F09BFF01224FF4807120464C
:1015800001F095FF00224FF40071204601F08FFF1B
:1015900000224FF48071204601F089FF10BD00BF8A
:1015A000000C014010B50A4C00224FF40071204697
:1015B00001F07DFF01224FF48071204601F077FF9A
:1015C00001224FF40071204601F071FF10BD00BFF1
:1015D000000C014070B50646002416E0802222412E
:1015E000124D32404FF40071284601F060FF012295
:1015F0004FF48071284601F05AFF00224FF48071A9
:10160000284601F054FF0134E4B2072CE6D9074C18
:1016100001224FF48071204601F049FF00224FF46F
:101620008071204601F043FF70BD00BF000C0140F7
:1016300010B50446FFF798FF7820FFF7CBFF002096
:10164000FFF7C8FF2046FFF7C5FFFFF7ABFF10BD50
:1016500010B50446FFF788FF7820FFF7BBFF402056
:10166000FFF7B8FF2046FFF7B5FFFFF79BFF10BD60
:1016700010B50C4640F0B000FFF7DAFF200940F04B
:101680001000FFF7D5FF04F00F00FFF7D1FF10BDEA
:1016900038B5002509E00020FFF7DAFF0134E4B295
:1016A00014F0800FF7D00135EDB2072D05D80021D9
:1016B0002846FFF7DDFF0024F2E738BDF8B51546F0
:1016C000461E7600F6B24F1EFF00FFB23946304686
:1016D000FFF7CEFF002409E0A5F120030F4A02EB3B
:1016E0000313185DFFF7B4FF0134E4B2072CF3D9FC
:1016F000701C3946C0B2FFF7BBFF00240BE0A5F118
:10170000200304F10802054901EB0313985CFFF77D
:101710009FFF0134E4B2072CF1D9F8BD90A800086E
:10172000F8B507460E461546002406E0A119C9B2D1
:101730003846FFF7C3FF0134E4B22A5D002AF5D131
:10174000F8BD0246012002E002FB00F019464B1EE4
:101750000029F9D1704700002DE9F84380468946F9
:101760001E46171E04DB2B22FFF7A8FF00241FE0F4
:101770002D22FFF7A3FF7F42F8E704EB0905EDB246
:10178000311B01390A20FFF7DCFFB7FBF0F00A4AF2
:10179000A2FB0032D20802EB8202A0EB42023032FE
:1017A000691CD2B2C9B24046FFF788FF0134E4B2E7
:1017B000B442E2D3BDE8F883CDCCCCCC08B500224E
:1017C00004E00133B3F57A7FFBD30132B2F57A7FBF
:1017D00001D20023F6E7FFF7B5FEAE20FFF728FFA2
:1017E000D520FFF725FF8020FFF722FFA820FFF775
:1017F0001FFF3F20FFF71CFFD320FFF719FF00203A
:10180000FFF716FF4020FFF713FFA120FFF710FF9F
:10181000C820FFF70DFFDA20FFF70AFF1220FFF7BD
:1018200007FF8120FFF704FFCF20FFF701FFD9203A
:10183000FFF7FEFEF120FFF7FBFEDB20FFF7F8FECF
:101840003020FFF7F5FEA420FFF7F2FEA620FFF7F9
:10185000EFFE8D20FFF7ECFE1420FFF7E9FEAF202E
:10186000FFF7E6FEFFF714FF08BD000070B5081A89
:10187000FEF7A0FF04461D4B1968FEF7E5FE05467E
:101880001B4B18601B4E31682046FEF7DFFE3060B0
:101890001949FFF74FF808B1174A32601749154B3D
:1018A0001868FFF729F810B1124B144A1A60144B4C
:1018B00019682046FEF72CFC06460E4B1968114BA2
:1018C0001868FEF725FC01463046FEF7BFFE0646C7
:1018D0000D4B19682846FEF71BFC01463046FEF703
:1018E000B5FE0A4B1860014B1C6070BDF00900206A
:1018F000000A00200C0A002000001644000016C454
:1019000020000020F80900201C000020040A00200C
:1019100070B5081AFEF74EFF04461D4B1968FEF716
:1019200093FE05461B4B18601B4E31682046FEF7A0
:101930008DFE30601949FEF7FDFF08B1174A32608D
:101940001749154B1868FEF7D7FF10B1124B144A10
:101950001A60144B19682046FEF7DAFB06460E4B58
:101960001968114B1868FEF7D3FB01463046FEF7A5
:101970006DFE06460D4B19682846FEF7C9FB014669
:101980003046FEF763FE0A4B1860014B1C6070BDC9
:10199000F0090020000A00200C0A002000007A4410
:1019A00000007AC41800002014000020100000205D
:1019B000040A00202DE9F041081AFEF7FBFE044658
:1019C0001A4B18601A4F3D682946FEF73DFE194B29
:1019D0001968FEF79DFB0646174B19682046FEF76F
:1019E00097FB01463046FEF731FE0646294628465B
:1019F000FEF72CFE01462046FEF726FEDFF83C806F
:101A0000D8F80010FEF722FE0D4B1968FEF780FB98
:101A100001463046FEF71AFE0A4E3168FEF716FE02
:101A20003060C8F800503C60BDE8F081EC0900204F
:101A3000F40900202C00002028000020FC090020D0
:101A400024000020080A00202DE9F041081AFEF7C2
:101A5000B1FE04461A4B18601A4F3D682946FEF73E
:101A6000F3FD194B1968FEF753FB0646174B19682F
:101A70002046FEF74DFB01463046FEF7E7FD0646E1
:101A800029462846FEF7E2FD01462046FEF7DCFD2A
:101A9000DFF83C80D8F80010FEF7D8FD0D4B196830
:101AA000FEF736FB01463046FEF7D0FD0A4E3168A0
:101AB000FEF7CCFD3060C8F800503C60BDE8F08116
:101AC000EC090020F40900202C0000202800002050
:101AD000FC09002024000020080A002070B50546FB
:101AE0000C4601F1004601463046FEF723FF00B9DF
:101AF0002E4621463046FEF71DFF00B934462046EB
:101B000070BD000000B585B00023019302930393DC
:101B10001848194A02604FF48072826001220273F1
:101B200003754FF46022C26143600223036101F038
:101B30000BF9B0B90023019301230293052303930A
:101B400001A90C4800F056FF70B90123019302234C
:101B5000029301A9074800F04DFF40B905B05DF8B8
:101B600004FB00F0BBFAE5E700F0B8FAEDE700F09F
:101B7000B5FAF3E7100A00200024014010B586B042
:101B80000023029303930493059302681D4B9A422A
:101B900001D006B010BD044603F56C439A6942F4C7
:101BA00000729A619A6902F400720092009A9A692E
:101BB00042F004029A619B6903F004030193019BC4
:101BC00003230293039302A90F4801F057FB0F4828
:101BD0000F4B03600023436083608022C2604FF498
:101BE000807202614FF48062426120228261C3618F
:101BF00001F030FA18B9054B23625C62C9E700F0C6
:101C00006DFAF8E70024014000080140400A002076
:101C10000800024000B583B00A4B5A6942F0010245
:101C20005A615B6903F001030193019B0022114695
:101C30000B2001F09FF90B2001F0D4F903B05DF8FF
:101C400004FB00BF001002402DE9F04389B00024DE
:101C50000494059406940794454B9A6942F0200237
:101C60009A619A6902F020020192019A9A6942F0FF
:101C700004029A619A6902F004020292029A9A6935
:101C800042F008029A619B6903F008030393039BE7
:101C9000384E2246B021304601F009FC364F22462C
:101CA00040F23131384601F002FC012504954FF035
:101CB0000308CDF8148004A9304601F0DFFA48F299
:101CC00004030493DFF8B490CDF81490069504A9AA
:101CD000304601F0D3FA482304930594069504A9ED
:101CE000304601F0CBFAB023049305950694CDF865
:101CF0001C8004A9304601F0C1FA312304930595F4
:101D00000694CDF81C8004A9384601F0B7FA0826DD
:101D10000496CDF81490069504A9384601F0AEFA61
:101D20004FF440730493112305930694CDF81C805F
:101D300004A9384601F0A2FA22462946304601F0AD
:101D400019F9304601F04EF922462946092001F0E2
:101D500011F9092001F046F922462946282001F010
:101D600009F9282001F03EF909B0BDE8F08300BF71
:101D70000010024000080140000C0140000021104A
:101D800038B50446042807D0B4F5004F00F093801E
:101D9000082C00F0C68038BD0421704801F080FB9B
:101DA0000028F1D1142000F0D3FD04216B4801F08C
:101DB00077FB0028F9D0142000F0CAFD684B1B788F
:101DC000012B16D0052B22D0022B2ED0032B3BD07B
:101DD0009A1ED2B2012A4AD9042B59D0062BD3D14C
:101DE0005F4B01221A7000235E4A13805E4A138003
:101DF000CAE75B4B05221A700020FFF77FFA002329
:101E00005A4A13805A4A1380564A1380BCE7544BEF
:101E100002221A700020FFF771FA0023534A138040
:101E2000534A13804F4A1380AEE7514AB2F900205B
:101E3000002ACBD14A4B03221A700020FFF75EFA2A
:101E40004A4B00221A809FE7494AB2F90020002A33
:101E5000BED1434B06221A700025454B1D802846F3
:101E6000FFF74CFA3F4B1D80404B1D808CE7404BE9
:101E70001B8803EB430303EB8313DB003D4A138012
:101E80003D4B1B6800225A62354B04221A707BE7D7
:101E9000334B06221A700025324B1D80324B1D80B9
:101EA000334B1D802846FFF729FA304B1D80324BFB
:101EB0001B685D6268E74FF40041284801F0F0FAC2
:101EC00000287FF465AF142000F042FD4FF400417C
:101ED000224801F0E5FA0028F8D0142000F038FD7F
:101EE0001F4B1B78022B0ED0032B11D0012B7FF43C
:101EF0004FAF1C4BB3F9003013F1280F0DDB143B2F
:101F0000184A138044E71A490A8801320A80EBE72D
:101F100017490A88013A0A80E8E7124B00221A8022
:101F200036E70821154801F0BBFA00287FF433AFEB
:101F3000142000F00DFD0A4B1B78042B3FF42BAF4F
:101F4000084BB3F90030282B03DC1433054A138007
:101F500021E7044B00221A801DE700BF0008014062
:101F600030000020900A0020880A0020960A0020F5
:101F7000920A00208E0A00209C0A0020000C0140DA
:101F80004E4B834200D070472DE9F0414C4B1B78FB
:101F9000042B31D0012B77D0052B75D0062B40F0C8
:101FA0008A80FFF7A1F9474B1880474C23881844D3
:101FB00000B22080454DB5F90010FFF7A9FCFEF7EF
:101FC000C3FC00B2424E3080FEF7F4FB4149FFF7FC
:101FD00085FDFEF7B9FC3080B4F90030B5F900207A
:101FE0009B1A0333062B01D800223280384BB3F9F9
:101FF0000000FFF783F95EE0FFF776F9314B1880B8
:10200000314D2B88184400B22880304EB6F90010AC
:10201000FFF72CFCFEF798FC04B2DFF8B480A8F8B8
:1020200000402D4BB3F90000FEF7C4FB07462046E5
:10203000FEF7C0FB3946FFF751FDFEF785FC01B204
:10204000A8F80010B5F90030B6F900209B1A043347
:10205000082B03D80020FFF751F92CE0194BB3F9F6
:102060000000FFF7A7FCFEF76FFC00B2184C2080C1
:10207000FEF7A0FB1749FFF731FDFEF765FC00B244
:102080002080FFF73BF916E0FFF72EF90D4B188083
:10209000114BB3F90010FFF7D7FCFEF755FC00B267
:1020A0000B4C2080FEF786FB0A49FFF717FDB4F9B9
:1020B0000000FFF723F9BDE8F08100BFE40A00202B
:1020C00030000020960A0020880A00208E0A002096
:1020D000940A002000007A44900A002072B6FEE7BD
:1020E00000B595B0282200210DEB020002F034FC6F
:1020F0000023059306930793089309930193029392
:102100000393049301220A924FF480330B930E92AF
:102110000222119212934FF4E01313930AA801F0D4
:10212000F1F9C8B90F230593022106910023079303
:102130004FF480620892099305A801F015FC68B974
:10214000022301934FF40043039301A801F0E8FC3C
:1021500030B915B05DF804FBFFF7C0FFFFF7BEFF15
:10216000FFF7BCFF0000000010B500F0CDFBFFF74B
:10217000B7FFFFF769FDFFF74DFD00F0C3F900F071
:10218000F5F900F0AFFA00F005FBFFF7BBFCFFF735
:1021900015FBFFF789F96E4801F06CFE04216D48CC
:1021A00002F0F4F96C4C0C21204602F081F90C216C
:1021B000204602F07DF9694C204600F049FE0222DB
:1021C0006749204600F0FCFC58E0FFF7EDF848B105
:1021D000644A5178137803EB01239BB25B42624A55
:1021E000138054E05F48FFF791F9F1E75C4B1888E2
:1021F00040F6B83398420DD9A0F6B830FEF78EF904
:102200004FA3D3E90023FEF73BFCFEF7F1F9574B50
:10221000188040E040F61D2398420DD8A0F61E20FD
:10222000FEF77CF948A3D3E90023FEF729FCFEF76B
:10223000DFF94E4B18802EE04C4B00221A802AE02A
:102240004B4A08210320FFF76BFA0423464AB2F9F0
:10225000002001211846FFF77FFA0423454AB2F90E
:10226000002007211846FFF777FA434BB3F9002007
:102270003E4BB3F90010414802F0C0FB022238493E
:10228000364800F09DFC3E4B1B78062B9DD03C4B06
:102290001B78052BAAD03B4A02210120FFF740FA08
:1022A0000223394AB2F9002008210120FFF754FA2D
:1022B000364A02210846FFF733FA02232B4AB2F9C5
:1022C000002008211846FFF747FA02232A4AB2F9EC
:1022D00000200B211846FFF73FFA2D4A0221032068
:1022E000FFF71EFA264B1B78012BA9D0052B0DD02A
:1022F000022B11D0032B15D0062B19D0042BA4D1FF
:10230000244A08210320FFF70BFA9EE7224A0821FE
:102310000320FFF705FA98E7204A08210320FFF77A
:10232000FFF992E71E4A08210320FFF7F9F98CE72D
:102330001C4A08210320FFF7F3F986E7AFF300807A
:10234000402B01AD04B4B23F12FA01AA1CA19F3F79
:10235000E40A00209C0A00202C0B0020100A002018
:10236000840A00208C0A00208E0A0020900A002097
:1023700098AE0008880A0020960A0020C8AE00081F
:102380003000002080AE0008920A002088AE0008CD
:1023900090AE0008C0AE0008A0AE0008A8AE0008CD
:1023A000B0AE0008B8AE000882B00E4B9A6942F099
:1023B00001029A619A6902F001020092009ADA69B8
:1023C00042F08052DA61DB6903F080530193019B94
:1023D000054A536823F0E06343F00073536002B092
:1023E000704700BF0010024000000140FEE7FEE71A
:1023F000FEE7FEE7FEE770477047704708B500F05C
:1024000095FA08BD08B5042001F058F808BD08B5D4
:10241000082001F053F808BD08B5024800F08CFE12
:1024200008BD00BF400A002008B5024801F05BFD6E
:1024300008BD00BFE40A002008B54FF4004001F0D9
:102440003DF808BD0120704708B502F05BFA16237D
:1024500003604FF0FF3008BD08B54FF0FF31FFF7C4
:10246000F3FFFEE770B50C461646002506E0AFF315
:102470000080214601F8010B01350C46B542F6DB20
:10248000304670BD70B50C461646002504E014F8C1
:10249000010B00F0DDF90135B542F8DB304670BDC7
:1024A0004FF0FF3070474FF400534B6000207047EF
:1024B000012070470020704710B503460C4A0D49B3
:1024C0000D48006840B10C4800680344521A93421A
:1024D00006D8094A136010BD0748084C0460F2E7AB
:1024E00002F010FA0C2303604FF0FF30F3E700BF57
:1024F0000050002000040000980A0020080C002072
:102500007047000000B58DB02422002103A802F01E
:1025100023FA0023019302931248134A0260436096
:1025200083604FF6FF72C260036143618023836161
:102530000323039301230593099303A901F022FECA
:1025400050B900230193029301A9064802F084F8D0
:1025500028B90DB05DF804FBFFF7C0FDF1E7FFF708
:10256000BDFDF6E79C0A0020002C014000B587B0B5
:102570000023029303930493059300930193164859
:102580004FF08042026041F61F4242608360632246
:10259000C26003618023836101F09CFD90B94FF418
:1025A0008053029302A90C4801F0F4FE68B900239D
:1025B000009301936946084802F04EF840B907B00D
:1025C0005DF804FBFFF78AFDE9E7FFF787FDEEE71B
:1025D000FFF784FDF3E700BFE40A002000B587B0F1
:1025E000002302930393049305930268104B9A42CD
:1025F00002D007B05DF804FB03F564439A6942F426
:1026000000629A619A6902F400620092009A9A69E3
:1026100042F004029A619B6903F004030193019B59
:102620004FF44073029302A9024800F027FEE0E74E
:10263000002C01400008014000B583B00368B3F1ED
:10264000804F05D0124A934216D003B05DF804FBC8
:1026500003F50433DA6942F00102DA61DB6903F061
:1026600001030093009B002202211C2000F082FC49
:102670001C2000F0B7FCE8E7064BDA6942F00202E2
:10268000DA61DB6903F002030193019BDDE700BF20
:10269000000400400010024000B587B00023029300
:1026A00003930493059302680C4B9A4202D007B03F
:1026B0005DF804FB03F503339A6942F008029A615E
:1026C0009B6903F008030193019B02230293039388
:1026D000059302A9024800F0D1FDE8E7000400409C
:1026E000000C014000B58FB000230A930B930C93AC
:1026F0000D93089309930193029303930493059315
:10270000069307932148224A026047224260836071
:1027100040F2E732C26003618023836101F0DAFC9A
:1027200028BB4FF480530A930AA9184801F032FEDF
:1027300000BB164801F0FAFCF8B90023089309938E
:1027400008A9124801F088FFD0B960230193002343
:102750000293039305930C2201A90C4801F0A0FDFC
:1027600088B90A48FFF798FF0FB05DF804FBFFF740
:10277000B5FCD6E7FFF7B2FCDBE7FFF7AFFCDCE721
:10278000FFF7ACFCE1E7FFF7A9FCEAE72C0B002020
:102790000004004008B50A480A4B03604FF4165382
:1027A000436000238360C360036108224261836148
:1027B000C36102F017F800B908BDFFF78FFCFBE713
:1027C000740B00200038014010B586B0002302933E
:1027D00003930493059302681A4B9A4201D006B002
:1027E00010BD03F558439A6942F480429A619A6990
:1027F00002F480420092009A9A6942F008029A61BB
:102800009B6903F008030193019B40230293022379
:102810000393032305930C4C02A9204600F02EFDE0
:102820008023029300230393049302A9204600F01F
:1028300025FD064A536843F0E06343F00403536008
:10284000CDE700BF00380140000C0140000001400E
:1028500000B583B001904FF6FF73012201A9034830
:1028600001F0F0FF019803B05DF804FB740B002049
:10287000FFF746FE0B480C490C4A002302E0D458EF
:10288000C4500433C4188C42F9D3094A094C0023BC
:1028900001E013600432A242FBD302F039F8FFF7E3
:1028A00063FC704700000020EC09002010B3000812
:1028B000EC090020040C0020FEE7000010B50446DF
:1028C0000E4B18784FF47A73B3FBF0F30C4A106890
:1028D000B0FBF3F000F094FB68B90F2C01D9012094
:1028E0000AE0002221464FF0FF3000F043FB054B89
:1028F0001C60002000E0012010BD00BF3800002057
:10290000340000203C00002008B5074A136843F05B
:1029100010031360032000F01BFB0020FFF7CEFF25
:10292000FFF742FD002008BD00200240034A116865
:10293000034B1B780B441360704700BFBC0B002097
:1029400038000020014B1868704700BFBC0B002006
:1029500038B50446FFF7F6FF0546B4F1FF3F02D055
:10296000044B1B781C44FFF7EDFF401BA042FAD339
:1029700038BD00BF38000020704708B5436A9A6A26
:1029800012F0500F1ED19A6A42F400729A621A68CD
:10299000926802F46022B2F5602F03D01846FFF768
:1029A000EBFF08BD1A7B002AF8D19A6A22F48072E4
:1029B0009A629A6A12F4805FF0D19A6A42F0010238
:1029C0009A62EBE71B6A1B6B9847EAE7704708B50A
:1029D000406AFFF7FBFF08BD704708B5406A836A8D
:1029E00043F040038362C36A43F00403C362FFF70A
:1029F000F3FF08BD30B482B00022019290F8242089
:102A0000012A00F091800346012280F824204A68C0
:102A1000062A2DD80468606B02EB8202053A4FF05B
:102A20001F0C0CFA02FC20EA0C000D6805FA02F2F9
:102A3000024362630A68092A3AD91C68E06802EB1B
:102A400042021E3A4FF0070C0CFA02FC20EA0C007E
:102A50008D6805FA02F20243E2600A68103A012A20
:102A600036D90020002283F8242002B030BC704701
:102A70000C2A0ED80568286B02EB8202233A1F2429
:102A8000944020EA04000C6804FA02F202432A632C
:102A9000D0E70568E86A02EB8202413A1F249440BD
:102AA00020EA04000C6804FA02F20243EA62C1E779
:102AB0001C68206902EB42024FF0070C0CFA02FC82
:102AC00020EA0C008D6805FA02F202432261C4E795
:102AD0001A681648824205D09A6A42F020029A6229
:102AE0000120BFE7906810F4000F1BD1906840F4FC
:102AF000000090600A68102A01D00020B2E70C4A5A
:102B000012680C49A1FB0212920C02EB82025200E5
:102B1000019202E0019A013A0192019A002AF9D148
:102B200000209FE700209DE702209EE7002401404F
:102B30003400002083DE1B4330B583B000230193B3
:102B400003689A6812F0010F33D104469A6842F084
:102B500001029A60184B1B68184AA2FB03239B0CC6
:102B6000019302E0019B013B0193019B002BF9D1F2
:102B7000FFF7E8FE054623689B6813F0010F16D1A6
:102B8000FFF7E0FE431B022BF5D923689B6813F087
:102B9000010FF0D1A36A43F01003A362E36A43F08C
:102BA0000103E362002384F82430012002E00020C6
:102BB00000E0002003B030BD3400002083DE1B4362
:102BC000F8B504460D46164601684448814259D07E
:102BD000434B994256D094F82430012B7CD00123EA
:102BE00084F824302046FFF7A7FF074600286ED15F
:102BF000A16A21F4706121F0010141F48071A162A8
:102C00002268374B9A4244D0A36A23F48013A3620C
:102C1000536813F4806F05D0A36A23F4405343F440
:102C20008053A362A36A13F4805F48D0E36A23F061
:102C30000603E362002384F82430236A294A9A6257
:102C4000236A294ADA62236A284A1A6323686FF0E2
:102C500002021A602268936843F4807393602168CB
:102C600033462A464C31206A00F02AFA23689A68D3
:102C700002F46022B2F5602F24D09A6842F48012E8
:102C80009A6027E0154B5B6813F4702FA3D00127DF
:102C900020E0A3F580635B6813F4702FB4D0A36ABF
:102CA00043F48013A3620D4B5B6813F4806FB9D0BB
:102CB000A36A23F4405343F48053A362B2E7002392
:102CC000E362B7E79A6842F4A0029A6002E0002348
:102CD00084F824303846F8BD0227FBE70024014081
:102CE000002801407B290008CF290008DB290008C3
:102CF00038B503689A6812F0010F01D1002038BD81
:102D000004469A6822F001029A60FFF71BFE05460E
:102D100023689B6813F0010F13D0FFF713FE431BCA
:102D2000022BF5D923689B6813F0010FF0D0A36A3A
:102D300043F01003A362E36A43F00103E36201205E
:102D4000DDE70020DBE7000000287BD070B50446FB
:102D5000836A002B4DD02046FFF7CAFFA36A13F009
:102D6000100369D1002867D1A26A22F4885222F0A8
:102D7000020242F00202A2626268E1690A43217B18
:102D800042EA4102A568B5F5807F02D0012D36D018
:102D90001D46267D012E35D02668716821F46941D3
:102DA000294371602568AE68274931401143A96005
:102DB000A168B1F5807F01D0012902D12369013BCF
:102DC0001B052568E96A21F470010B43EB62236857
:102DD00099681E4B0B409A4225D0A36A23F0120338
:102DE00043F01003A362E36A43F00103E3620120AE
:102DF00027E0C36280F82430FEF7C0FEABE74FF453
:102E00008075C6E731B9A169013945EA413141F41C
:102E10000065C1E7A16A41F02001A162E16A41F0C9
:102E20000101E162B8E70023E362A36A23F0030330
:102E300043F00103A36204E0A36A43F01003A3621A
:102E4000012070BD01207047FDF7E1FFFE0E1FFF5E
:102E500070B582B00023019390F82430012B72D01A
:102E60000446012380F82430FFF742FF2046FFF795
:102E700063FE054628B1002384F82430284602B0BA
:102E800070BDA36A23F4885323F0020343F00203C6
:102E9000A3622E4B1E68022000F0CEFEB6FBF0F6B9
:102EA0007600019602E0019B013B0193019B002B00
:102EB000F9D12268936843F008039360FFF742FD5D
:102EC000064623689A6812F0080F14D0FFF73AFDFF
:102ED000801B0A28F5D923689B6813F0080FF0D0EF
:102EE000A36A23F0120343F01003A362002384F8C3
:102EF00024300125C2E79A6842F004029A60FFF785
:102F000021FD064623689B6813F0040F14D0FFF7D9
:102F100019FD801B0A28F5D923689B6813F0040F5C
:102F2000F0D0A36A23F0120343F01003A36200233E
:102F300084F824300125A1E7A36A23F0030343F0BA
:102F40000103A36297E7022598E700BF3400002041
:102F5000074AD36823F4E0631B041B0C000200F44F
:102F6000E060034343F0BF6343F40033D360704732
:102F700000ED00E000B5194BDB68C3F30223C3F199
:102F8000070CBCF1040F28BF4FF0040C03F1040E32
:102F9000BEF1060F18D9033B4FF0FF3E0EFA0CFCB2
:102FA00021EA0C0199400EFA03F322EA03031943C4
:102FB00000280BDB0901C9B200F1604000F5614057
:102FC00080F800135DF804FB0023E5E700F00F0034
:102FD0000901C9B2024B1954F4E700BF00ED00E04B
:102FE00014ED00E0002807DB00F01F024009012378
:102FF0009340024A42F82030704700BF00E100E0F1
:103000000138B0F1807F0BD24FF0E0235861054AC0
:10301000F02182F823100020986107221A6170477E
:103020000120704700ED00E030B40124056CAC4095
:10303000C56B6C60046863604368102B05D003683F
:1030400099600368DA6030BC704703689A6003686F
:10305000D960F8E760B310B402460168154B0B4421
:103060001548A0FB03031B099B001364134BD36398
:10307000022382F82130086820F47F5020F03000CD
:10308000536894682343D4682343146923435469E1
:10309000234394692343D469234303430B600020F3
:1030A0009063012382F8213082F8200010BC704721
:1030B00001207047F8FFFDBFCDCCCCCC0000024012
:1030C00038B5044690F82000012832D0012084F859
:1030D000200094F82100C0B2012804D0002384F815
:1030E0002030022038BD022084F821000020A06397
:1030F0002568286820F0010028602046FFF794FF2B
:10310000E36A5BB12268136843F00E031360226820
:10311000136843F0010313600020E3E7226813689B
:1031200023F0040313602268136843F00A0313605A
:10313000EDE70220D6E7000038B5C36B1A680468D3
:103140002568016C04238B40134235D015F0040F21
:1031500032D0236813F0200F03D1236823F0040337
:1031600023600368434A934214D01432934218D028
:103170001432934217D01432934217D01432934230
:1031800017D01432934202D04FF0806203E04FF424
:10319000800200E00422384B5A60C36A03B19847AA
:1031A00038BD4022F7E74FF48062F4E74FF48042E5
:1031B000F1E74FF48022EEE702238B4013423CD02C
:1031C00015F0020F39D0236813F0200F06D12368C1
:1031D00023F00A032360012380F821300368254A85
:1031E000934214D0143293421CD0143293421BD019
:1031F000143293421BD0143293421BD014329342A8
:1032000002D04FF0007203E04FF4001200E00222FF
:10321000194B5A60002380F82030836A002BBFD0FE
:103220009847BDE72022F3E74FF40072F0E74FF430
:103230000052EDE74FF40032EAE7082303FA01F108
:103240001142ADD015F0080FAAD0236823F00E0369
:103250002360026CC16B012303FA02F24A608363AC
:1032600080F82130002380F82030036B002B97D0AA
:10327000984795E7080002400000024070B582B010
:103280000024A446A6E0804DAA4210D007D97F4D65
:10329000AA420CD005F58035AA4208D013E0A5F566
:1032A0008015AA4203D005F57025AA4207D18A6885
:1032B000002A58D0012A51D04361082403E0A5F523
:1032C0008015AA42F3D0BEF1FF0F4ED80646BEF1DC
:1032D000FF0F4CD84FEA8C0233680F25954023EA44
:1032E000050304FA02F2134333604B6813F0805F66
:1032F0006ED0674B9A6942F001029A619B6903F0B4
:1033000001030193019B4FEA9C02951C614B53F80A
:1033100025600CF003039D000F23AB4026EA030653
:103320005D4B984229D003F58063984200F08E806F
:1033300003F58063984200F08B8003F58063984228
:1033400019D004231AE0CC68BDE7CC680434BAE78E
:10335000CC680834B7E7CC680C34B4E703610824C0
:10336000B1E70024AFE70424ADE7061DAFE7ACF1F9
:1033700008029200B0E7032300E00023AB40334390
:103380000232444D45F822304B6813F4801F61D05F
:10339000424A936843EA0E0393604B6813F4001F9C
:1033A0005ED03E4AD36843EA0E03D3604B6813F401
:1033B000003F5BD0394A536843EA0E0353604B68C1
:1033C00013F4803F58D0354A136843EA0E03136064
:1033D0000CF1010C0A6832FA0CF353D0012303FA02
:1033E0000CF302EA030E33EA0202F1D14A68122A10
:1033F0003FF649AF122A3FF666AF01A555F822F015
:10340000AF32000847330008513300086333000827
:10341000C7320008C7320008C7320008C7320008A8
:10342000C7320008C7320008C7320008C732000898
:10343000C7320008C7320008C7320008C732000888
:10344000C73200084B33000857330008012395E7C3
:10345000022393E7114A936823EA0E0393609CE7E3
:103460000E4AD36823EA0E03D3609FE70B4A5368E2
:1034700023EA0E035360A2E7084A136823EA0E0307
:103480001360A5E702B070BD0000221000003110EB
:10349000001002400000014000080140000401400B
:1034A0008368194201D001207047002070470AB19B
:1034B00001617047090401617047000008B5054BC0
:1034C0005B69034200D108BD024B5861FEF758FC0E
:1034D000F9E700BF0004014082B0084B1B68084AAE
:1034E000A2FB03235B0A00FB03F3019300BF019BD4
:1034F0005A1E0192002BF9D102B07047340000200F
:10350000D34D6210002800F0F18170B582B00446FE
:10351000036813F0010F2CD0994B5B6803F00C0388
:10352000042B1DD0964B5B6803F00C03082B12D0C4
:103530006368B3F5803F41D0002B55D103F1804340
:1035400003F504331A6822F480321A601A6822F4F0
:1035500080221A6037E08A4B5B6813F4803FE7D023
:10356000874B1B6813F4003F03D06368002B00F007
:10357000BF81236813F0020F75D0814B5B6813F095
:103580000C0F5FD07E4B5B6803F00C03082B54D00C
:103590002369002B00F08A807A4B01221A60FFF722
:1035A000D1F90546764B1B6813F0020F75D1FFF772
:1035B000C9F9401B0228F5D903209EE1704A13681F
:1035C00043F480331360636843B3FFF7BBF90546E8
:1035D0006B4B1B6813F4003FCBD1FFF7B3F9401BD3
:1035E0006428F5D9032088E1B3F5A02F09D0644BF6
:1035F0001A6822F480321A601A6822F480221A6053
:10360000E1E703F18043A3F53C331A6842F48022DA
:103610001A601A6842F480321A60D4E7FFF792F910
:103620000546574B1B6813F4003FA2D0FFF78AF9F9
:10363000401B6428F5D903205FE1514B5B6813F40C
:10364000803FA5D14E4B1B6813F0020F03D02369B6
:10365000012B40F04F814A4A136823F0F803616957
:1036600043EAC1031360236813F0080F33D0A36942
:10367000002B5CD0434B0122C3F88024FFF762F992
:1036800005463F4B5B6A13F0020F21D1FFF75AF951
:10369000401B0228F5D903202FE1394A136823F093
:1036A000F803616943EAC1031360DCE7354B00228C
:1036B0001A60FFF747F90546314B1B6813F0020FFC
:1036C000D1D0FFF73FF9401B0228F5D9032014E1C0
:1036D0000120FFF701FF236813F0040F00F096802C
:1036E000274BDB6913F0805F34D1254BDA6942F058
:1036F0008052DA61DB6903F080530193019B01255D
:10370000214B1B6813F4807F26D0E368012B3DD04A
:10371000002B53D103F1804303F504331A6A22F0DE
:1037200001021A621A6A22F004021A6233E0154B8F
:103730000022C3F88024FFF705F90546104B5B6AA9
:1037400013F0020FC7D0FFF7FDF8401B0228F5D990
:103750000320D2E00025D3E70B4A136843F48073BB
:103760001360FFF7EFF80646074B1B6813F4807FE2
:10377000CBD1FFF7E7F8801B6428F5D90320BCE024
:103780000010024000004242007000405F4A136A8D
:1037900043F001031362E36833B3FFF7D3F806463F
:1037A0005A4B1B6A13F0020F2FD1FFF7CBF8801B87
:1037B00041F288339842F3D903209EE0052B09D0CB
:1037C000524B1A6A22F001021A621A6A22F00402AB
:1037D0001A62E0E74D4B1A6A42F004021A621A6A52
:1037E00042F001021A62D6E7FFF7ACF80646474BF3
:1037F0001B6A13F0020F08D0FFF7A4F8801B41F2F8
:1038000088339842F3D9032077E0E5B9E369002BC8
:1038100072D03E4A526802F00C02082A56D0022B9F
:1038200017D03B4B00221A66FFF78CF80446374B43
:103830001B6813F0007F47D0FFF784F8001B0228B5
:10384000F5D9032059E0314AD36923F08053D3617D
:10385000DCE72F4B00221A66FFF774F805462B4B66
:103860001B6813F0007F06D0FFF76CF8401B02289E
:10387000F5D9032041E0236AB3F5803F1AD02349EC
:103880004B6823F47413226A606A024313434B604B
:103890001F4B01221A66FFF755F804461B4B1B68A5
:1038A00013F0007F0ED1FFF74DF8001B0228F5D969
:1038B000032022E0154A536823F40033A1680B4328
:1038C0005360DCE7002018E0002016E0012B16D042
:1038D0000E4B5B6803F48031226A914211D103F4EC
:1038E0007013626A93420ED1002006E001207047F7
:1038F000012002E0012000E0002002B070BD0120A4
:10390000FBE70120F9E70120F7E700BF00100240C4
:10391000000042420F4B5B6803F00C02082A01D002
:103920000D487047C3F383420C49885C13F4803F11
:103930000BD0084B5B68C3F34043094AD35C064A8B
:1039400002FB00F0B0FBF3F07047064B03FB00F006
:10395000704700BF0010024000127A00E8AE000875
:10396000F8AE000800093D00002800F0A08070B506
:103970000D460446524B1B6803F007038B420BD2E3
:103980004F4A136823F007030B431360136803F0D7
:1039900007038B4240F08D80236813F0020F17D08D
:1039A00013F0040F04D0474A536843F4E0635360B4
:1039B000236813F0080F04D0424A536843F460535D
:1039C0005360404A536823F0F003A1680B435360EF
:1039D000236813F0010F31D06368012B20D0022B34
:1039E00025D0384A126812F0020F64D035494A686F
:1039F00022F0030213434B60FEF7A4FF0646314B4F
:103A00005B6803F00C036268B3EB820F16D0FEF71D
:103A100099FF801B41F288339842F0D9032045E09A
:103A2000284A126812F4003FE0D101203EE0254A06
:103A3000126812F0007FD9D1012037E0204B1B68BB
:103A400003F00703AB420AD91D4A136823F00703AA
:103A50002B431360136803F00703AB422DD1236897
:103A600013F0040F06D0174A536823F4E063E168AB
:103A70000B435360236813F0080F07D0114A5368B3
:103A800023F46053216943EAC1035360FFF742FF07
:103A90000C4B5B68C3F303130B4AD35CD8400B4B4E
:103AA00018600B4B1868FEF709FF002070BD01205D
:103AB00070470120FAE70120F8E70120F6E700BF90
:103AC0000020024000100240D0AE00083400002068
:103AD0003C000020014B1868704700BF34000020F4
:103AE00008B5FFF7F7FF044B5B68C3F30223034AF3
:103AF000D35CD84008BD00BF00100240E0AE000813
:103B000008B5FFF7E7FF044B5B68C3F3C223034A22
:103B1000D35CD84008BD00BF00100240E0AE0008F2
:103B200070B582B00446036813F0010F36D03F4BE6
:103B3000DB6913F0805F49D13C4BDA6942F0805277
:103B4000DA61DB6903F080530193019B0125384B57
:103B50001B6813F4807F3BD0344B1B6A13F4407313
:103B600013D0626802F440729A420ED02F4A136A50
:103B700023F440702F490126C1F840640026C1F8A3
:103B80004064106213F0010F36D1284A136A23F4FF
:103B9000407361680B431362002D3ED1236813F01C
:103BA000020F06D0214A536823F44043A1680B4317
:103BB0005360236813F0100F34D01C4A536823F469
:103BC0008003E1680B43536000202CE00025BEE732
:103BD000174A136843F480731360FEF7B3FE06467A
:103BE000134B1B6813F4807FB6D1FEF7ABFE801B2E
:103BF0006428F5D9032016E0FEF7A4FE06460B4B19
:103C00001B6A13F0020FC0D1FEF79CFE801B41F22D
:103C100088339842F3D9032005E0D36923F0805319
:103C2000D361BBE7002002B070BD00BF00100240AE
:103C3000007000400000424208B502284ED0102813
:103C400003D0012828D0002008BD2B4B5A681868E3
:103C500010F08070F8D0C2F383432849C85C12F496
:103C6000803F15D0244B5B68C3F34043244AD25CA9
:103C7000244BB3FBF2F303FB00F01F4B5B6813F420
:103C8000800FE1D14000204BA3FB00304008DBE770
:103C90001E4B03FB00F0F0E7174B1B6A40F20232A9
:103CA0001A40B2F5817F24D003F44073B3F5007F4E
:103CB00004D0B3F5407F09D00020C5E70E4A526A10
:103CC00012F0020FF5D049F64040BDE70A4B1868E4
:103CD00010F40030B8D04FF22440B5E7FFF710FFE2
:103CE000054B5B68C3F3813301335B00B0FBF3F03A
:103CF000AAE74FF40040A7E700100240FCAE00081E
:103D00000CAF000800127A00ABAAAAAA00093D0075
:103D100070B4036A026A22F0010202624668826994
:103D200022F073020C6844EA020523F002028B6859
:103D300013430D4CA04209D00B4CA0420DD046605D
:103D400085614A684263036270BC704723F00803D0
:103D5000CA68134323F00403EEE726F440764A6969
:103D600032438E691643EAE7002C014030B4036AFF
:103D7000026A22F4807202624568C26922F073020C
:103D80000C68224323F400738C6843EA04230F4C2D
:103D9000A04209D00D4CA0420ED04560C2614A68D5
:103DA000C263036230BC704723F40063CC6843EA0B
:103DB000042323F48063EDE725F440554C6945EA7C
:103DC00004158C6945EA0415E7E700BF002C0140A3
:103DD00030B4036A026A22F4805202624468C26903
:103DE00022F4E6420D6842EA052223F400538D686E
:103DF00043EA0533074DA84206D04460C2614A68D1
:103E00000264036230BC704724F480444D6944EA84
:103E10008514F2E7002C014010B4036A046A24F010
:103E200001040462846924F0F00C4CEA021223F0CD
:103E30000A030B438261036210BC704710B4036A2B
:103E4000046A24F010040462846924F4704C4CEA7F
:103E5000023223F0A00343EA01138261036210BC23
:103E60007047836823F070030B4343F007038360BC
:103E70007047000090F83D30DBB2012B27D10223C0
:103E800080F83D300268D36843F00103D3600368D3
:103E9000114A934210D0B3F1804F0DD0A2F5943265
:103EA000934209D002F58062934205D01A6842F02D
:103EB00001021A60002070479A6802F00702062A81
:103EC00007D01A6842F001021A60002070470120F2
:103ED00070470020704700BF002C014070477047BA
:103EE00070477047704710B5044603681A6912F0AE
:103EF000020F11D0DA6812F0020F0DD06FF002023B
:103F00001A610123037703689B6913F0030F70D0D4
:103F1000FFF7E6FF0023237723681A6912F0040FE6
:103F200012D0DA6812F0040F0ED06FF004021A619A
:103F30000223237723689B6913F4407F5FD02046D8
:103F4000FFF7CEFF0023237723681A6912F0080FCA
:103F500012D0DA6812F0080F0ED06FF008021A6162
:103F6000042323772368DB6913F0030F4ED0204628
:103F7000FFF7B6FF0023237723681A6912F0100FAA
:103F800012D0DA6812F0100F0ED06FF010021A6122
:103F9000082323772368DB6913F4407F3DD0204654
:103FA000FFF79EFF0023237723681A6912F0010FA1
:103FB00003D0DA6812F0010F36D123681A6912F0C3
:103FC000800F03D0DA6812F0800F34D123681A69A9
:103FD00012F0400F03D0DA6812F0400F32D123689C
:103FE0001A6912F0200F03D0DA6812F0200F30D1D6
:103FF00010BDFFF774FF2046FFF773FF8AE72046E6
:10400000FFF76DFF2046FFF76CFF9BE72046FFF7A9
:1040100066FF2046FFF765FFACE72046FFF75FFF2E
:104020002046FFF75EFFBDE76FF001021A612046F0
:10403000FDF7A6FFC1E76FF080021A61204600F08D
:1040400042FBC3E76FF040021A612046FFF74AFFC8
:10405000C5E76FF020021A61204600F033FBC7E786
:1040600003681B4A90420AD0B0F1804F07D0A2F5F6
:104070009432904203D002F58062904203D123F043
:1040800070034A681343124A90420AD0B0F1804F3D
:1040900007D0A2F59432904203D002F5806290429C
:1040A00003D123F44073CA68134323F080034A69A1
:1040B000134303608B68C3620B688362044B9842AE
:1040C00002D00123436170470B690363F9E700BF26
:1040D000002C014040B310B5044690F83D30F3B1D8
:1040E000022384F83D30214651F8040BFFF7B8FF56
:1040F000012384F8463084F83E3084F83F3084F859
:10410000403084F8413084F8423084F8433084F8F9
:10411000443084F8453084F83D30002010BD80F8EC
:104120003C30FEF789FADBE70120704740B310B559
:10413000044690F83D30F3B1022384F83D30214627
:1041400051F8040BFFF78CFF012384F8463084F804
:104150003E3084F83F3084F8403084F8413084F8B1
:10416000423084F8433084F8443084F8453084F891
:104170003D30002010BD80F83C30FFF7AFFEDBE79C
:1041800001207047002857D070B50D46044690F8BE
:104190003D30002B4BD0022384F83D3022689368D9
:1041A00023F4804323F007039360214651F8040B66
:1041B000FFF756FF21688A688B690E6A28681043EA
:1041C00023F4407C2CF0030CAA68AB6942EA032379
:1041D00043EA0C0323F47C4323F0FC03EA69D5F89B
:1041E0000CC04CEA022C4CEA030C2A6A13032A691D
:1041F00043EA021343EA0C0326F022066A686D695B
:1042000042EA05123243886021688B6123681A6292
:10421000012384F8463084F83E3084F83F3084F837
:10422000423084F8433084F83D30002070BD80F87F
:104230003C30FEF7D3F9AEE70120704730B4036A93
:10424000026A22F0100202624468826922F4E642A5
:104250000D6842EA052223F020038D6843EA051326
:104260000E4DA84209D00D4DA8420ED04460826187
:104270004A688263036230BC704723F08003CD68D4
:1042800043EA051323F04003EDE724F440644D694D
:1042900044EA85048D6944EA8504E7E7002C01407F
:1042A00038B590F83C30012B66D004460D4601230A
:1042B00080F83C300C2A5AD8DFE802F007595959E7
:1042C0001B5959593059595944000068FFF720FDCE
:1042D0002268936943F0080393612268936923F08D
:1042E000040393612268936929690B439361002059
:1042F0003EE00068FFF7A2FF2268936943F4006381
:1043000093612268936923F48063936122689369BF
:10431000296943EA01239361002029E00068FFF73F
:1043200025FD2268D36943F00803D3612268D3696D
:1043300023F00403D3612268D36929690B43D36155
:10434000002015E00068FFF743FD2268D36943F4BD
:104350000063D3612268D36923F48063D361226848
:10436000D369296943EA0123D361002000E00120D9
:10437000002384F83C3038BD0220FCE710B4846888
:1043800024F47F4C42EA03220A4342EA0C02826090
:1043900010BC704790F83C30012B78D010B5044623
:1043A000012380F83C30022380F83D300268936896
:1043B00023F47F4323F0770393600B68602B4CD08A
:1043C00029D8402B54D00CD9502B22D1CA68496827
:1043D0000068FFF721FD50212068FFF742FD002013
:1043E00005E0202B0DD009D9302B0AD00120012364
:1043F00084F83D30002384F83C3010BD0BB1102B05
:1044000005D119462068FFF72CFD0020EFE70120B9
:10441000EDE70120EBE7B3F5805F34D0B3F5005F43
:104420000CD1CB684A6889680068FFF7A7FF22684B
:10443000936843F4804393600020D8E7702B24D125
:10444000CB684A6889680068FFF798FF226893681C
:1044500043F0770393600020C9E7CA6849680068A1
:10446000FFF7ECFC60212068FFF7FBFC0020BEE7B3
:10447000CA6849680068FFF7CFFC40212068FFF751
:10448000F0FC0020B3E70020B1E70120AFE70220F5
:10449000704701F01F01012303FA01FC036A23EABC
:1044A0000C030362036A02FA01F10B4303627047D3
:1044B00010B50446084651BB94F83E30DBB2013BD0
:1044C00018BF0123002B5BD1002839D1022384F8C7
:1044D0003E30012201462068FFF7DBFF23682A4AAD
:1044E00093423DD02368284A93423ED0B3F1804F97
:1044F0003BD0A2F59432934237D002F580629342CA
:1045000033D01A6842F001021A60002039E0042911
:1045100008D008290DD094F84130DBB2013B18BF18
:104520000123CFE794F83F30DBB2013B18BF0123F2
:10453000C8E794F84030DBB2013B18BF0123C1E764
:10454000042805D0082807D0022384F84130C0E7AA
:10455000022384F83F30BCE7022384F84030B8E7F8
:104560005A6C42F400425A64BCE79A6802F00702AF
:10457000062A07D01A6842F001021A60002000E003
:10458000012010BD0020FCE7002C014038B5044696
:1045900090F83E00C0B294F83F3094F84220D2B276
:1045A00094F843C00D46B1B9012849D1012A48D138
:1045B000022384F83E3084F842307DB3042D39D094
:1045C000012200212068FFF764FF012204212068F6
:1045D000FFF75FFF27E0DBB25FFA8CFC042912D003
:1045E000012833D1012B2CD1012A31D1BCF1010F8B
:1045F00030D1022384F83E3084F83F3084F84230D2
:1046000084F84330D9E7012B1CD1BCF1010F1BD139
:10461000022384F83F3084F84330CEE701220021A2
:104620002068FFF736FF2268136843F00103136028
:10463000002006E0012204212068FFF72AFFF2E7AC
:10464000012038BD0120FCE71846FAE70120F8E711
:104650001846F6E71046F4E790F83C30012B2CD0D2
:1046600010B4012380F83C30022380F83D30036809
:104670005A689C6822F0700C0A6842EA0C025A6080
:1046800003680F4A93420AD0B3F1804F07D0A2F5D6
:104690009432934203D002F58062934204D124F015
:1046A00080044A6814439C60012380F83D30002355
:1046B00080F83C30184610BC70470220704700BF9D
:1046C000002C01407047704710B50446026813691A
:1046D00023F44053C1680B43136183680269134399
:1046E00042691A430168CB6823F4B05323F00C03EA
:1046F0001343CB600268536923F4407381690B4311
:1047000053610268134B9A4220D0FFF7E9F9024641
:1047100002EB820202EB820263689B00B2FBF3F2BF
:104720000D48A0FB02314909642303FB11231B013F
:104730003233A0FB03235B0903F0F00202EB01120A
:1047400003F00F03216813448B6010BDFFF7D8F905
:104750000246DDE7003801401F85EB512DE9F843A3
:1047600005460F4616469946DDF820802C682468D9
:1047700037EA04030CBF4FF0010C4FF0000CB445B6
:104780002DD1B8F1FF3FF1D0B8F1000F05D0FEF701
:10479000D9F8A0EB09004045E8D92A6802F10C03DA
:1047A00053E8003F23F4D0730C3242E80031002973
:1047B000F3D12A6802F1140353E8003F23F0010308
:1047C000143242E800310029F3D1202385F841302A
:1047D00085F84230002385F84030032000E00020B7
:1047E000BDE8F88360B310B5044690F8413013B3C8
:1047F000242384F841302268D36823F40053D36023
:104800002046FFF761FF2268136923F49043136188
:104810002268536923F02A0353612268D36843F462
:104820000053D36000206064202384F8413084F872
:104830004230606310BD80F84030FDF7C5FFD7E718
:10484000012070472DE9F04182B01E4690F84130BA
:10485000DBB2202B4BD104460D46904600294AD0AE
:104860000AB9012044E000234364212380F8413049
:10487000FEF768F80746A4F82480A4F82680A36809
:10488000B3F5805F02D04FF000080FE02369FBB161
:104890004FF000080AE038F8023B2268C3F308032F
:1048A0005360E28C92B2013A92B2E284E38C9BB202
:1048B0008BB100963B46002280212046FFF74EFF39
:1048C000D8B9002DE7D015F8012B23685A60E8E726
:1048D000A8460025EAE700963B46002240212046F4
:1048E000FFF73CFF58B9202384F8413000E0022054
:1048F00002B0BDE8F0810120FAE70320F8E70320C9
:10490000F6E70000014B1868704700BF4000002028
:1049100070B50D4E0D4D761BB61006D0002455F81F
:10492000043B01349847A642F9D1094E094D05F0E0
:10493000A1FF761BB61006D0002455F8043B0134C5
:104940009847A642F9D170BD0000000000000000A9
:104950000000000000000000830730B548D0541E5E
:10496000002A3FD00346CAB201E0013C3AD303F823
:10497000012B9D07F9D1032C2DD9CDB245EA052590
:104980000F2C45EA054536D9A4F1100222F00F0C90
:1049900003F1200EE6444FEA121C03F1100242E933
:1049A000045542E9025510327245F8D10CF101026A
:1049B00014F00C0F03EB021204F00F0C13D0ACF147
:1049C000040323F003030433134442F8045B9342CB
:1049D000FBD10CF003042CB1CAB21C4403F8012B28
:1049E0009C42FBD130BD64461346002CF4D1F9E75C
:1049F00003461446BFE71A46A446E0E70FB400B5E5
:104A0000074A83B004AB106853F8042B8168019304
:104A100000F008F803B05DF804EB04B0704700BF85
:104A2000400000202DE9F04FD5B01C46914607917B
:104A30000546099003F016F902680E941046179285
:104A400004F0C0F816901DB1AB6B002B00F01D8276
:104A5000079A536EDD0740F12D81B2F90C2091B217
:104A60008F0409D4079B42F400529A8191B21A46EE
:104A70005B6E23F4005353660E0740F1C080079B22
:104A80001B69002B00F0BB8001F01A030A2B00F019
:104A9000C48000242BAB224698464D46CDE92944DC
:104AA0002893129400230024CDE914342B78CDE907
:104AB0001922CDE91B2218920B92002B00F08F8156
:104AC000AA4604E01AF8013F002B00F0BB80252B1A
:104AD000F8D1BAEB050640F0B9809AF80030002B07
:104AE00000F07D8100234FF0FF324FF02B0920248E
:104AF0001F469AF8016008920AF1010A8DF8833086
:104B00000A930AF1010AA6F120035A2B00F2E18070
:104B1000DFE813F00503DF00DF000003DF00DF0044
:104B2000DF00DE02DF00DF006A006E02DF005502F8
:104B30007802DF0073025B005B005B005B005B00E0
:104B40005B005B005B005B00DF00DF00DF00DF007D
:104B5000DF00DF00DF006C01DF00EA01C4016C014F
:104B60006C016C01DF00DF00DF00DF00D002DF003E
:104B7000DF002302DF00DF00DF00F801DF00920228
:104B8000DF00DF008707DF00DF00DF00DF00DF007E
:104B9000DF00DF00DF006C01DF00EA01C6016C010D
:104BA0006C016C01B602C601BF01DF00C302DF0069
:104BB0005A022502A402BF01DF00F8017200840737
:104BC000DF00DF006507DF0072000022A6F130037E
:104BD0001AF8016B02EB820203EB4202A6F13003EA
:104BE000092BF5D90A928EE70E9B53F8042B002A65
:104BF0000A920E93C0F2E0819AF8006081E7079D67
:104C00000998294601F0FCFC002841F04D83A98950
:104C100001F01A030A2B7FF43CAF079AB2F90E3069
:104C2000002BFFF636AF536ED80702D4890541F149
:104C3000488123464A460799099855B0BDE8F04F88
:104C400001F09CBCBAEB050600F0C9802A9BC8E9BC
:104C5000005633442A93299B0133072B299305DC03
:104C600008F108080B9B33440B9336E70799099822
:104C700028AA04F045F880B90DF1AC08F2E70799CD
:104C8000099828AA04F03CF8002800F099800D9BB0
:104C90001BB11946099802F0C1FE079A536ED90755
:104CA00040F1E88093895B0601F10A830B9855B0C7
:104CB000BDE8F08F079BB3F90C20900591B23FF54A
:104CC000CFAE1D46986D02F0D5FFB5F90C2091B21C
:104CD000C6E6002E00F08380012300228DF8EC60F0
:104CE00006933BAD8DF883200C930D9208920F92A2
:104CF0001392109217F0020302D006990231069126
:104D000017F0840B07D10A990698A1EB0009B9F1B5
:104D1000000F00F390832A9C82B10122C8F804207E
:104D2000299A013401320DF18301072A2A9429922C
:104D3000C8F8001000F3D88308F108087BB10223FB
:104D4000C8F80430299B0234013321AA072B2A9486
:104D50002993C8F8002000F3D58308F10808BBF1B7
:104D6000800F00F08882089B0C9AA3EB020BBBF12A
:104D7000000F00F3CB82FB0500F11F820C9BC8F8EB
:104D800000501C44C8F80430299B2A940133072B97
:104D9000299300F3448308F10808780705D50A9B96
:104DA000069A9D1A002D00F3B983DDE90A230699BE
:104DB0008A42ACBF9B185B180B93002C7FF45FAF4B
:104DC000002329930D9B1BB10D99099802F026FE33
:104DD00055460DF1AC082B78002B7FF471AE2A9B61
:104DE000002B41F010820023299356E70E9B0733D6
:104DF00023F00702F2E80234CDE91434DDE914347B
:104E000024F00044994618460E9221464FF0FF3296
:104E1000AB4BFCF7CFF8002840F0188548462146F8
:104E20004FF0FF32A64BFCF7A7F8002840F00E85A4
:104E3000DDE9140100220023FCF794F8002840F07B
:104E400065879DF88320002103209E4D9E4B27F00F
:104E500080070D910690472EC8BF1D4608910C9003
:104E60000F9113911091002A3FF444AF069B013338
:104E700006933FE7079B9B899A053FF514AF079C74
:104E8000A06D02F0F9FEA3890DE7099802F0E4FC99
:104E9000DEE59AF8006047F0200732E647F0100799
:104EA000BA060E9B40F16E84073323F007031A46BF
:104EB0005B6852F8084B99460E92002BC0F26F8443
:104EC000089B013300F0FB8254EA090327F0800BB2
:104ED00040F0F682089B002B40F0F7825F460023EB
:104EE00054AD08930C933DE1012000220E9B0690E7
:104EF00053F8041B3BAD8DF883208DF8EC100E9316
:104F00000C90F2E64FF000090E9C089B54F8045BED
:104F10008DF88390002D00F0A1855A1C00F0A58625
:104F20001A464946284603F0C5F90D90002801F0BD
:104F300050810D9B9DF883205B1B0C9323EAE37348
:104F4000CDF820900E940693CDF83490CDF83C9097
:104F5000CDF84C90CDF8409085E747F0100717F05A
:104F6000200900F0F2830E9B073323F00703D3F8E8
:104F7000049053F8084B0E93002327F4806B002213
:104F80008DF88320089A511C00F0D48054EA09015E
:104F90002BF0800740F0CD80002A40F00486002BE3
:104FA0009DD11BF001030C9300F0308430230DF2EF
:104FB0004F158DF84F31D5E00A9B5B420A939AF862
:104FC000006047F004079CE5BD0600F1FD84FC0687
:104FD00000F1EE85780600F1B286B90540F1E8856A
:104FE0000E9B0B9953F8042B554611700E93F2E665
:104FF0009AF800608DF8839083E59AF8006047F096
:1050000080077EE5524612F8016B2A2E01F08D8250
:10501000A6F13003092B924698BF002201F2E580E9
:105020001AF8016B02EB820203EB4202A6F1300395
:10503000092BF5D9089266E547F0100B1BF0200903
:1050400000F091830E9B073323F007031A4652F8B2
:10505000084BD3F804900E92012390E73022782673
:105060000E9B8DF8842053F8044B184A0E934FF092
:105070000009022347F0020B8DF8856018927EE745
:105080009AF80060682E03BF9AF8016047F4007731
:105090000AF1010A47F0400733E59AF800606C2EE8
:1050A00003BF9AF8016047F020070AF1010A47F0B0
:1050B000100726E59AF8006047F0080721E500BFD1
:1050C000FFFFEF7F10AF000814AF000820AF00080B
:1050D000099E304602F0C6FD436818461B9303F054
:1050E00071FD034630461C931E4602F0BBFD8368EB
:1050F0001993002E3FF480AD199B002B3FF47CAD3B
:10510000199B1B78002B3FF477AD9AF8006047F4A9
:105110008067F6E49AF8006047F00107F1E49DF833
:105120008330002B7FF468AD9AF800608DF88340DF
:10513000E7E4BB46012B00F0C381022B54AD1FD125
:10514000189A04F00F03D35C240944EA09744FEA67
:10515000191905F8013D54EA0903F2D15F4654AB31
:105160005B1B0C93089A0C9900238A42B8BF0A462D
:105170000D9306920F939DF883201393109372E67C
:1051800004F00703E40844EA49744FEAD9093033CC
:1051900054EA09012A4605F8013DF1D11BF0010F3F
:1051A000DCD0302BDAD03023023A05F8013C54AB86
:1051B0009B1A5F4615460C93D4E7652E40F3E980B1
:1051C000DDE9140100220023FBF7C2FE002800F0F5
:1051D000E1810123C8F80430299BC04A013301341E
:1051E000072B2A942993C8F8002000F3BF8408F104
:1051F0000808229B129A934280F2DC82169B179A2F
:105200001C44C8E90023299B2A940133072B2993C6
:1052100000F3178408F10808129B5D1E002D7FF72C
:10522000BCAD102D41F35D81DFF8B49222464946B2
:105230001026B946299B0F46DDF824B0079C05E0EF
:1052400008F10808103D102D40F39D840133103201
:10525000072BC8E90076CDE92932F1DD2146584611
:1052600028AA03F04DFD00287FF411ADDDE92932B5
:105270000DF1AC08E6E70A9B069AA3EB020BBBF123
:10528000000F7FF770ADBBF1100F41F35280DFF8D4
:10529000509241462046A8464C461023299A079D25
:1052A000DDF8249006E0ABF1100BBBF1100F01F11B
:1052B000080119DD01321030072AC1E90043CDE9A8
:1052C0002920F0DD2946484628AA03F019FD0028C8
:1052D0007FF4DDACDDE92920ABF1100BBBF1100F41
:1052E0004FF010032BA9E5DC4546A146884604464D
:1052F00001325C44072ACDE92924C8F80090C8F897
:1053000004B000F3918308F108082CE5BBF1100FFD
:1053100040F3E384DFF8C89141462046A8464C4656
:105320001023299A079DDDF8249006E0ABF1100BBD
:10533000BBF1100F01F1080119DD01321030072A0D
:10534000C1E90043CDE92920F0DD2946484628AAD5
:1053500003F0D6FC00287FF49AACDDE92920ABF1FC
:10536000100BBBF1100F4FF010032BA9E5DC4546E5
:10537000A1468846044601325C44072ACDE9292427
:10538000C8F80090C8F804B000F3D28108F108080A
:10539000F1E4129B012B40F382810123299E013409
:1053A0001E44072EC8F800502A94C8F804302996E5
:1053B00000F36C8308F10808169B0136179A1C4409
:1053C000072EC8E90023CDE9296400F36C8308F1B6
:1053D00008080022DDE914010023FBF7B9FD0028CD
:1053E00040F07A81129B0136013B01351C44072EA7
:1053F000C8F800502996C8F804302A9400F35F8159
:1054000008F108081A9B01361C44C8F80430072E1E
:1054100024ABCDE92964C8F800307FF7BCAC07990C
:10542000099828AA03F06CFC00287FF430AC2A9C71
:105430000DF1AC08B1E4B9F1100F40F3C686DDE917
:1054400029214046CDE91D36B84610244F46079E17
:10545000A946099D04E0103F102F00F1080016DD59
:105460000132204B1031072AC0E90034CDE929214F
:10547000F1DD3146284628AA03F042FC00287FF4DB
:1054800006ACDDE92921103F102F2BA8E8DC4D46A2
:10549000DDE91D36B9464746804609EB0104013275
:1054A0001049072ACDE92924C8F80490C8F800104B
:1054B00000F340839DF8832008F108082CE4BB46E4
:1054C0000A2C79F1000380F0FB82012330345F461F
:1054D0008DF84F410C930DF24F1543E650AF000885
:1054E00064AF000854AF00080799099828AA1D93D3
:1054F00003F006FC00287FF4CAAB2A9C1D9B0DF12B
:10550000AC081BE40799099828AA03F0F9FB0028C6
:105510007FF4BDAB2A9C0DF1AC0820E4102D40F3C4
:10552000BE861026299B099FDDF81C9004E0103DE3
:10553000102D08F1080817DD0133BA4A1034072B83
:10554000C8E90026CDE92934F1DD4946384628AAC4
:1055500003F0D6FB00287FF49AABDDE92934103D37
:10556000102D0DF1AC08E7DC0133AE4A2C44072BBB
:10557000CDE92934C8F80450C8F800207FF715ACED
:105580000799099828AA03F0BBFB00287FF47FAB9A
:105590002A9C0AE42299002940F31081DDF840900A
:1055A000129B9945A8BF9946B9F1000F0BDD299BC5
:1055B0004C440133072BC8E900592A94299300F37E
:1055C000818508F10808109EB9F1000FA8BFA6EB6D
:1055D0000906002E00F3F582DDF840B07905AB44F2
:1055E00000F1AC84229B129A934202DBFA0740F14D
:1055F0009283169A17991444C8E90012299A2A949A
:105600000132072A299200F3A88508F10808129AA6
:10561000AE18A6EB0B06D51AAE42A8BF2E46002E3A
:105620000DDD299B34440133072BC8F800B0C8F8BE
:1056300004602A94299300F3FC8508F10808002EE1
:10564000A8BFAD1B002D7FF7A8AB102D40F34987F5
:10565000DFF8D491224649461026B946299B0F46C9
:10566000DDF824B0079C05E008F10808103D102D76
:1056700040F3898201331032072BC8E90076CDE967
:105680002932F1DD2146584628AA03F039FB0028CB
:105690007FF4FDAADDE929320DF1AC08E6E7FE074B
:1056A0003FF57BAE0123299E01341E44072EC8F826
:1056B00000502A94C8F8043029967FF7A1AE0799C4
:1056C000099828AA03F01CFB00287FF4E0AADDE972
:1056D00029640DF1AC0895E6129B5D1E002D7FF745
:1056E00091AE102D40F31987224608974FF0100B0A
:1056F000DFF83491099C079F05E008F10808103D88
:10570000102D40F3C78201361032072EC8E9009BE6
:10571000CDE92962F1DD3946204628AA03F0F0FAE6
:1057200000287FF4B4AADDE929620DF1AC08E6E7B0
:105730000799099828AA03F0E3FA00287FF4A7AA9A
:105740002A9C0DF1AC08FFF716BB17F0100377D1B8
:1057500017F0400200F0AC820E9A994652F8044BC2
:105760000E92A4B208E41BF010030E9A54D11BF061
:1057700040014DD052F8044B99460E920123A4B239
:10578000FFF7FDBB53F8044B0E93FB0653D47D0685
:105790004ED544F3C0394B4624B2FFF78EBB2D23C0
:1057A00064428DF88330BB464FF0010369EB490931
:1057B000FFF7E8BBF8077FF5F0AA1FE50123C8F85B
:1057C0000430299B194A01330134072B2A94299369
:1057D000C8F8002000F3688408F10808002940F0A8
:1057E0002582129A07F0010313433FF4D6AA169BB1
:1057F0001799E218C8E90013299B2A920133072B55
:10580000299300F3508308F1080820E254ADA9E47D
:105810001BF4007940F0A08252F8044B01230E9251
:10582000FFF7ADBB54AF000864AF000850AF0008ED
:10583000B80500F179824FEAE4794B46FFF73DBBAA
:105840000E9B53F8044B0E93FFF796BBDDE9140152
:1058500002460B46FBF7AEFB002840F0F785612EB1
:1058600000F06C85412E00F07F82089B013300F030
:10587000948526F02003472B069300F07B85DDE915
:10588000141247F480730F931346002BC0F2F48573
:105890000C9300238B461D930D93069B462B00F023
:1058A0002B84452B00F0148508990C9B0191022153
:1058B000009126A9049123A9039122A95A46099887
:1058C000029100F09DFF069B0546472B40F0448661
:1058D00017F0010FB9460F9F40F0F784269B5B1B22
:1058E0001293069B472B00F0F182069B462B00F09B
:1058F0004284229B1093109B069A013B412A2293DB
:1059000000F08A850021F2B2002B8DF89020B6BFFE
:105910002D222B22109B8DF89120B8BFC3F10103DB
:10592000092B40F381850DF19F0C6246BA4F1C464E
:10593000104687FB0312D917C1EBA20101EB8102CC
:10594000A3EB42023032632C00F8012C0B4600F12D
:10595000FF32ECDC3033811EDBB28C4502F8013CB7
:1059600040F2FF850DF1920101E012F8013B9445F0
:1059700001F8013BF9D10DF1A1030DF192021B1ABF
:10598000134424AA9B1A1A93129B1A9A012B1A44A5
:105990000C9240F39E850C9B169A13440C930023A3
:1059A0000C9A29F4806722EAE27247F480770F9319
:1059B0000692139310931D9B002B40F0B0829DF82C
:1059C00083200893FFF74FBA0E9B0B9853F8041BE4
:1059D000C2175546C1E900020E93FFF7FCB98F4B81
:1059E000189317F0200949D00E9B073323F00703C3
:1059F000D3F8049053F8084B0E93F80709D554EAEE
:105A0000090306D030238DF8856047F002078DF832
:105A10008430022327F4806BFFF7B1BABB46FFF74F
:105A20000DBB7F4B1893DCE70799099828AA03F070
:105A300067F900287FF42BA92A9C0DF1AC08FFF729
:105A400092B90799099828AA03F05AF900287FF417
:105A50001EA92A9C0DF1AC08FFF7DEBB062B2946D8
:105A600028BF06232A4608950D9506936D4D0E9482
:105A70000C930F9113911091FFF7F5B917F01003E4
:105A800069D00E9B53F8044B0E93B6E7079909981B
:105A900028AA03F035F900287FF4F9A8DDE9296484
:105AA0000DF1AC0888E40799099828AA03F028F9B1
:105AB00000287FF4ECA8DDE929640DF1AC0888E446
:105AC00000230BF48062CDE90CA8069692461E4690
:105AD000DDF8648054AF0CE00023204649460A22DA
